:020000040800F2
:10000000D00B0020A9010008371F00088B19000839
:10001000331F0008A5150008A532000800000000E5
:100020000000000000000000000000003127000870
:10003000A9150008000000007125000845280008E7
:10004000C3010008C3010008C3010008C301000880
:10005000C3010008C3010008C3010008C301000870
:10006000C3010008C3010008C3010008C301000860
:10007000C3010008C3010008C3010008C301000850
:10008000C3010008C3010008C3010008C301000840
:10009000C3010008C3010008C3010008C301000830
:1000A000C3010008C3010008C3010008C301000820
:1000B000E92A0008C3010008C3010008C3010008C1
:1000C000C3010008C3010008C3010008C301000800
:1000D000C3010008C3010008C3010008C3010008F0
:1000E000AD150008C3010008C301000800F002F8C4
:1000F00000F04AF80AA090E8000C82448344AAF178
:100100000107DA4501D100F03FF8AFF2090EBAE875
:100110000F0013F0010F18BFFB1A43F0010318473B
:100120002C8E00004C8E0000103A24BF78C878C195
:10013000FAD8520724BF30C830C144BF04680C60ED
:10014000704700000023002400250026103A28BF35
:1001500078C1FBD8520728BF30C148BF0B60704739
:10016000662907F06A84642900F0708000207047D7
:100170001FB500F099FC04000020002106F048FAA9
:10018000E0601FBD10B510BD00F0D6FD1146FFF7B1
:10019000EFFF04F0F7FE00F0F4FD03B4FFF7F2FF09
:1001A00003BC03F004F900000948804709480047F0
:1001B000FEE7FEE7FEE7FEE7FEE7FEE7FEE7FEE717
:1001C000FEE7FEE704480549054A064B7047000074
:1001D00049280008ED000008D0050020D00B0020C1
:1001E000D0070020D0070020704710B54C1084EADB
:1001F000530404D54042C1F1000138BF491E1B42DF
:1002000004D55242C3F1000338BF5B1E00F02EF943
:1002100014F0804F04D04042C1F1000138BF491EA4
:1002200014F0004F04D05242C3F1000338BF5B1EEC
:1002300010BD00000FB4044910B503AA029800F0E5
:10024000FFFB10BC5DF814FB040000202DE9F04119
:100250000646002410687529314616A510D0AFF364
:100260000080002802DA404213A507E031688A07BF
:1002700001D512A502E0490704D511A5012401E02A
:10028000AFF3008000210A2206F1240709E0B0FB49
:10029000F2FCB0FBF2F302FB1C003030785418463D
:1002A000491C0028F3D123462A463046BDE8F041D8
:1002B00000F05EB9000000002D0000002B000000DF
:1002C000200000002DE9F05F894604464FF0000A47
:1002D000DFF824B1FB44C0F820A02046E16888473D
:1002E00000287DD0252806D0D4E901219047206A36
:1002F000401C2062F1E700255F462046E168884700
:100300002028064607DB312E05D2B81910F8200C3C
:1003100008B10543F1E7A80701D525F00405C4F8A5
:100320001CA00027C4F818A02A2E09D0304603F0DC
:1003300037F838B304EB8708303EC8F8186019E086
:1003400059F8041B204604EB87029161E168884755
:10035000012F064618D1E069002820DA25F0200593
:100360001DE0D8F8180000EB800006EB40003038A4
:10037000C8F818002046E1688847064603F010F8E0
:100380000028EED1012F0AD02E2E08D12046E16898
:1003900088477F1C0646022F45F02005C4DBA06974
:1003A000002803DA404245F00105A061E80701D0CA
:1003B00025F01005A6B1A6F14100192802D8203673
:1003C00045F400654A463146204625604D46FFF714
:1003D000C7FE60B1012807D0ED1D25F0070000E041
:1003E00007E000F1080978E705F1040975E73046F0
:1003F0007AE7206ABDE8F09F8E8A000040EA010398
:1004000010B59B070FD1042A0DD310C808C9121FBD
:100410009C42F8D020BA19BA884201D9012010BDF7
:100420004FF0FF3010BD1AB1D30703D0521C07E0C4
:10043000002010BD10F8013B11F8014B1B1B07D128
:1004400010F8013B11F8014B1B1B01D1921EF1D199
:10045000184610BD02F0FF0343EA032242EA0242BB
:1004600000F002BB704770477047704753EA020CB8
:1004700000F069802DE9F04B4FF00006002B1FBF04
:10048000B3FA83F503FA05F424FA05F65E4012BFC9
:100490001643B2FA82F502FA05F4C5F120051EBF33
:1004A00022FA05FC44EA0C04203556EA044C4FEAD3
:1004B000144418BF641C4FF000084FF0000990422C
:1004C00071EB030C39D3002919BFB1FA81F701FA96
:1004D00007F6B0FA80F700FA07F6C7F120071EBF4B
:1004E00020FA07FC46EA0C062037B6FBF4FCA7EB23
:1004F0000507103F07F01F0BCBF120060CFA0BFB92
:100500002CFA06F644BFB3460026202FA4BF5E4651
:100510004FF0000B5BEA060C08BF4FF0010B19EB24
:100520000B09ABFB027C48EB0608C01B06FB02CCA8
:100530000BFB03CC71EB0C01C1E70B4602464146B5
:100540004846BDE8F08B13B54FF000004FF00001B6
:10055000AFF30080BDE81C40704710B500F0A8FA6A
:10056000006810BD10B5044600F0A2FA046010BD8A
:100570002DE9F0470D4699469246044600F12408BD
:100580000168880604D5E06921F01001216000E0CF
:100590000120A84201DD471B00E00027A1697A196C
:1005A00002EB0900081AA0612078C00602D4204698
:1005B000AFF30080002608E0D4E901211AF8060014
:1005C0009047206A401C761C20624E45F4DB207860
:1005D000C0060AD52046AFF3008006E0D4E9012129
:1005E00030209047206A401C2062381EA7F1010786
:1005F000F4DC07E0D4E9012118F805009047206AEF
:10060000401C2062281EA5F10105F3DC2046AFF353
:1006100000802078000602D50220BDE8F087012086
:10062000FBE770472DE9FF4F0C461E464FF0FF37A2
:100630008BB0D2E90001DDF860800A908A46C1F3F0
:100640000A5505B93D46002108464FF00000BAF1B1
:10065000000F00F4400005DA00EB80004FF4400189
:1006600001EA50004FEA9059B9F1010F00DDB94697
:100670000A9850EA4A000ED044F61050A5F2FF3511
:1006800045432F14B8F1000F1ED07542291E1EDD00
:10069000C9F100021CE0B8F1010F4FF0000001D0D9
:1006A000302103E0F24305E02154401CB042FBDB63
:1006B00030460022002121540B99C1F80880C1E97D
:1006C00000200FB0BDE8F08FBD1B6D1CDEE74A4671
:1006D00000DA694206A800F08DFA06AB93E807003D
:1006E00003AB83E8070050460A9900F093FB8DE8BE
:1006F0000700A0F500501F3800900398002D0ADD78
:1007000042F21F014A460844002303A903906846A9
:1007100000F0FCFD09E0A0F500504A461F38002318
:1007200003A90390684600F006FE8DE80700000468
:10073000000C03D04FF0FF30410800E01046B8F144
:10074000000F03D00022009215461EE0751E05D44E
:1007500000F0B2F9303262556D1EF9D5B346012270
:10076000084302D000227F1C04E02078302801D109
:1007700000227F1E002A099784D01DE0112D07DA80
:1007800000F09AF9303262556D1C50EA0102F5D141
:10079000084302D00098C8B10EE00021681E05E0B1
:1007A000235C625C63542254401E491C8142F7DB87
:1007B000AB46A81B401E0990002004F80B000B98C4
:1007C000099AC0F80880C0E9002B7AE711264FF09B
:1007D000000857E72DE9F04F88460446D21D22F065
:1007E000070191B0D1E90001CDE90A0102F05CFDF9
:1007F00002460B98C00F01D02D2007E0206881072A
:1008000001D52B2002E0202101EAC000032A099033
:1008100001D0072A05DB03464146204600F0AAF92D
:100820000BE12078800601D5E06900E00620B8F1F0
:10083000650F814606D0B8F1660F18D0B8F1670F82
:1008400070D131E00020B9F1110F009001DB1123CC
:1008500001E009F101030AAA01A90CA8FFF7E2FED1
:10086000DDE90C70002609F10105834647E001200F
:100870004B4600904FF000470AAA01A90CA8FFF7C9
:10088000D1FEDDE90DB00C995D46002610B909F1E5
:1008900001000D18B9EB050003D4C0F1FF3609F1D2
:1008A0000105A5EB09002BE0B9F1010F01DA4FF0CA
:1008B00001090020B9F1110F0090484601DD112314
:1008C00000E003460AAA01A90CA8FFF7ABFEDDE988
:1008D0000C704D4600268346207800070AD4AB45AD
:1008E00000DA5D4601A8012D04DD411911F8011C53
:1008F000302907D04F4502DA17F1040F04DA01203E
:1009000082460FE06D1EEEE7002F02DCED1B3E4439
:1009100003E0781CA84200DD7D1CB81B00F1010A31
:100920004FF000472078000703D4AA4501DB4FF0C1
:10093000FF3A0021B7F1004F0DF143088DF8431045
:1009400024D002202B23002F01DA7F422D230A21FD
:10095000021EA0F1010000DC5FB197FBF1FC97FBE8
:10096000F1F201FB1C7C17460CF1300C08F801CDAC
:10097000EEE7A8F1010003702188090501D54521A2
:1009800000E06521A0F1010800F8011C09980FA9F9
:10099000A1EB0807FF1D00B10120411901EBEA702E
:1009A000A1693844081A401EA0612078C00602D40C
:1009B0002046AFF30080099828B1D4E9012190477F
:1009C000206A401C20622078C00622D52046AFF362
:1009D00000801EE0002E04DBB34502DD01A8805D2F
:1009E00000E03020D4E901219047206A401C2062B9
:1009F000761CAAF101005FEA000A0AD100F054F85F
:100A0000C0680168405CD4E901219047206A401C1D
:100A10002062281EA5F10105DCDC07E0D4E90121F4
:100A200018F8010B9047206A401C2062381EA7F17D
:100A30000107F3DC2046AFF30080032011B041E64C
:100A4000074B70B50D467B4400F081F804462846FC
:100A500000F042F910B14FF0FF3070BD204670BD7C
:100A6000773E00004FF000020429C0F0128010F021
:100A7000030C00F03781CCF1040CBCF1020F18BF5D
:100A800000F8012BA8BF20F8022BA1EB0C0100F00D
:100A900029B95FEAC17C24BF00F8012B00F8012BC3
:100AA00048BF00F8012B70470048704790050020B0
:100AB000004870477005002030B5B0F10A024FEAD7
:100AC000900E71F100034EEA817EB0EB0E0061EBF7
:100AD00091014FEA101E4EEA017E10EB0E0041EB31
:100AE00011114FEA102E4EEA016E10EB0E0041EB91
:100AF00011214FEA104E4EEA014E10EB0E0041EB71
:100B00001141401841F100014FEAD00040EA417024
:100B10004FEAD10110EB80054FEA810444EA90745A
:100B200044EB01046D1944EB0404521BA3414FF044
:100B3000000348BF0A3200D530BD401C41F100011E
:100B400030BD000001694A1C02610878704700B599
:100B50008FB0CDE901310021059105497944CDE9F6
:100B6000031011466846FFF7ADFB0FB000BD000053
:100B7000E5FFFFFF2DE9F0411F460446032601680B
:100B8000072A01F4006004DB08B116A505E016A5EC
:100B900003E008B115A500E015A521F010002060C4
:100BA000A069C01EA0610FB1401EA0612046AFF336
:100BB00000804FB1D4E9012138469047206A401C9B
:100BC0002062C01C206206E0206AFAE7D4E9012115
:100BD00015F8010B9047761EF8D22046AFF300803F
:100BE000BDE8F0814E414E006E616E00494E4600F8
:100BF000696E66002DE9F047814616468AB0354891
:100C000078440DC88DE80D0032487844801C03AC50
:100C10000DC884E80D0041F69B300844372190FB55
:100C2000F1F290FBF1F5A5F1800501FB12041B3CEC
:100C300002D56442012000E00020DFF898A0804641
:100C40000027FA44AAF1BE0A0EE0E0070AD03246B5
:100C5000684607EB470101230AEB810100F06BFBBB
:100C60008DE8070064107F1C002CEED1194F7F44E3
:100C7000AE3F19E0E80715D007EB04100DF1180A94
:100C800090E80E008AE80E00C068F04201D1981981
:100C900008903246012306A903A800F04CFB03ABE1
:100CA00083E807006D10641C002DE3D14FF00103B1
:100CB00032466946B8F1000F03A802D000F026FBC7
:100CC00001E000F038FBC9E90001C9F808200AB0CA
:100CD000BDE8F087E0820000007B00F080007047F4
:100CE0004FF0000200B5134694469646203922BFC5
:100CF000A0E80C50A0E80C50B1F12001BFF4F7AF10
:100D0000090728BFA0E80C5048BF0CC05DF804EBF1
:100D1000890028BF40F8042B08BF704748BF20F85F
:100D2000022B11F0804F18BF00F8012B7047000014
:100D300000487047700500207546FFF7F9FFAE4682
:100D400005006946534620F00700854618B020B5D7
:100D5000FFF738FABDE820404FF000064FF00007DB
:100D60004FF000084FF0000B21F00701AC46ACE853
:100D7000C009ACE8C009ACE8C009ACE8C0098D46C0
:100D8000704710B50446AFF300802046BDE8104020
:100D9000FFF703BA4FF0013C50F8042B51F8043B25
:100DA0009A4221D1A2EB0C03934313EACC1317D13F
:100DB00050F8042B51F8043B9A4215D1A2EB0C03D6
:100DC000934313EACC130BD150F8042B51F8043B96
:100DD0009A4209D1A2EB0C03934313EACC13DBD064
:100DE0004FF00000704700BFD01A01BAB1FA81F18C
:100DF00001F0180122FA01F0CB40C1F12001DBB271
:100E0000C0B2C01A2CFA01F3D11A914311EAC311EE
:100E1000E6D170475FEA400C08BF91F0000F4FEA3F
:100E20008C234FEAC12243EA51514FEA1C5018BFAC
:100E300000F5F0404FEA300018BF41F000415FEA92
:100E40006C5C00F02980BCF1FF3F08BF40F080409F
:100E50007047130C06BF12044FF0100C4FF0000C3B
:100E6000130E04BF12020CF1080C130F04BF120181
:100E70000CF1040C930F04BF92000CF1020CD30F81
:100E800004BF52000CF1010C11464FF00002A0F11A
:100E90001F00A0EB0C00704711F0004F08BF704717
:100EA00031F000413FF4D5AF0B0C06BF09044FF001
:100EB000100C4FF0000C0B0E04BF09020CF1080CD3
:100EC0000B0F04BF09010CF1040C8B0F04BF890048
:100ED0000CF1020CCB0F04BF49000CF1010CCCF15A
:100EE0002003A0EB0C0022FA03F302FA0CF241EA11
:100EF000030100F10100704720F07F4C80EA0300FD
:100F000023F07F47ACEB070303F57C5300F0004070
:100F100003F1FF032DE980494FEA154B09B44FEA6D
:100F2000144325EA0B4E24EA03480FF2042606EB8D
:100F3000132749083E785FEA320203FB0667C7F5CC
:100F4000000707FB06F64FEA54374FEAD64606F18C
:100F5000020607FB066CCCF1005C4FEA1C472CEA4A
:100F6000074C07FB06F40CFB06F504EB15464FEAAD
:100F7000961634BF00204FF000404FEAD13706FBF1
:100F800007FC4FEA1C4C0CFB0BF7D21B03FB0CF7C6
:100F900061EB07010CFB0EF7B0EB074072EB174259
:100FA0000CFB08F734BFA2EB0742B2EB074261EB40
:100FB00017414FEA0C444FEA910706FB07FC4FEA42
:100FC0001C4C0CFB0BF7B0EBC74072EB573203FB2A
:100FD0000CF734BFA2EBC742B2EBC74261EB57310B
:100FE0000CFB0EF7B0EBC70072EB57720CFB08F767
:100FF00034BFA2EBC702B2EBC70261EB5771039F8C
:101000004FEA816141EA921104EBCC044FEAD137F7
:101010004FEA826206FB07FC42EA90124FEA8060C8
:101020004FEA1C4C0CFB0BF7D21B03FB0CF761EBDC
:1010300007010CFB0EF7B0EB074072EB17420CFBFD
:1010400008F734BFA2EB0742B2EB074261EB17414E
:101050004FEA8C554FEA910704EB9C2406FB07FCF2
:101060004FEA1C4C0CFB0BF7B0EBC74072EB57324E
:1010700003FB0CF734BFA2EBC742B2EBC74261EBF4
:1010800057310CFB0EF7B0EBC70072EB57720CFB3D
:1010900008F734BFA2EBC702B2EBC70261EB57718E
:1010A00015EB4C254FEA816141EA92114FEA8262C9
:1010B0004FEAD13742EA901206FB07FC44F10004E4
:1010C0004FEA80604FEA1C4C0CFB0BF7D21B03FB72
:1010D0000CF761EB07010CFB0EF7B0EB074072EB6E
:1010E00017420CFB08F734BFA2EB0742B2EB0742F2
:1010F00061EB174115EB1C154FEA813141EA924132
:101100004FEA823242EA90424FEA80304FEA0C7650
:1011100044F1000448EA03434EEA0B484FF0000E46
:10112000B2EB080C71EB030724BF624639464EEB65
:101130000E0E4FF0000B0018524149414BEB0B0BC8
:10114000B2EB080C71EB03077BF1000B24BF624686
:1011500039464EEB0E0E4FF0000B0018524149413C
:101160004BEB0B0BB2EB080C71EB03077BF1000BA5
:1011700024BF624639464EEB0E0E51EA020718BFF5
:1011800046F0010616EB0E7655F1000254F100010F
:1011900003D5BDE88901BDE80088BDE88901BDE847
:1011A0000048B619524141EB0101A3F10103704718
:1011B00080807F7E7D7C7B7A797877767675747394
:1011C000727171706F6E6E6D6C6C6B6A6A69686853
:1011D000676666656464636362616160605F5F5EE9
:1011E0005E5D5D5C5C5B5B5A5A595958585757565F
:1011F00056555555545453535252525151505050C4
:101200004F4F4F4E4E4D4D4D4C4C4C4B4B4B4A4A15
:101210004A49494948484847474747464646454559
:101220004544444444434343434242424241414192
:10123000002B9C4630D477002BD01CB54FEA3707E3
:1012400003B44FF010004FF01001BAF1000F06D0B8
:10125000BCF1000FDCBF40F0080040F008014FF087
:1012600000000FBCBDE810400BF1010BBBF1010FFA
:1012700008BF5FEA170722BF12F1010211F1010155
:101280004FF0004143F1000300F0004043EA00004A
:101290007047F9D35708D0E746EA064613F1400FE6
:1012A0004FEA16461FDD13F1200FDFBF16430A4633
:1012B000002120335B42BED0C3F1200746EA064638
:1012C00002FA07F74FEA164646EA0706C3F1200777
:1012D00022FA03F201FA07F721FA03F14FF00003B3
:1012E00042EA0702A7E746EA020646EA06464FEA4E
:1012F000164646EA0106BCBF46EA0646360C4FF0E3
:1013000000034FF000024FF0000194E72DE9804CFC
:101310009A46934670B491E8380007C831EA400C09
:1013200048BF34EA430C03D5FFF7E6FDFFF780FF23
:10133000F0BCBDE8008C2DE9804C9A46934670B411
:1013400091E8380007C810F0804F08BF13F0804FB5
:1013500003D100F005F8FFF76BFFF0BCBDE8008C8F
:1013600020F07F4780EA030023F07F4C07EB0C035B
:10137000A3F57C5300F00040A3F1FE0392F0000FB0
:1013800000F0B38095F0000F00F077802DE901495F
:101390004FEA11404FEA144621EA004800FB06FCE0
:1013A00024EA064708FB06F607FB08F800FB07F7E8
:1013B00018EB06484CEB164C4FEA124B18EB07485B
:1013C0004FEA15464CEB174022EA0B4E0BFB06FC8E
:1013D00025EA06470EFB06F607FB0EFE0BFB07F79A
:1013E0001EEB064E4CEB164C4FF000061EEB074E64
:1013F0004CEB174B18EB0B0840F1000018EB0E0BF1
:1014000058EB000840F100008F1A4FF000013CBF7C
:10141000C943661B14BFB5EB040C00213CBFC94394
:10142000F61B4FEA17444EEA8E0E27EA04454FEAB0
:101430001C4704FB07622CEA074C05FB07F70CFB73
:1014400005F604FB0CFC16EB074642EB174216EBC5
:101450000C4642EB1C421BEB060658EB02024141D4
:1014600046EA9E0601D5BDE80189B619524141EB15
:101470000101A3F10103BDE801894FEA14454FEAD8
:10148000114724EA054621EA074C05FB07F406FB51
:1014900007F70CFB06F105FB0CFC11EB074144EBD5
:1014A00017444FEA124711EB0C4144EB1C4422EA6B
:1014B000074C05FB07F206FB07F70CFB06F605FBDE
:1014C0000CFC16EB074642EB174216EB0C4642EBC0
:1014D0001C456A1854F1000148BF7047B6195241C3
:1014E00041EB0101A3F10103704795F0000F37D0E4
:1014F0004FEA11424FEA144721EA024624EA074C18
:1015000002FB07F106FB07F70CFB06F402FB0CFCE1
:1015100014EB074441EB17414FEA154714EB0C4419
:1015200041EB1C4125EA074C02FB07F506FB07F7D8
:101530000CFB06F602FB0CFC16EB074645EB1745C9
:1015400016EB0C4645EB1C42121951F1000148BF45
:101550007047B619524141EB0101A3F101037047F5
:101560004FEA14454FEA114724EA054621EA074CA1
:1015700005FB07F106FB07F70CFB06F24FF0000630
:1015800005FB0CFC12EB074241EB174112EB0C423E
:1015900051EB1C4148BF7047921841EB0101A3F188
:1015A0000103704700BFFEE7704700002DE9FC41D2
:1015B0004FF4005000F0D4F801287CD14C4A4D493A
:1015C0004D4803F095FD002876D14C4A4C494D48D2
:1015D00000F0DDF94C480078012817D14548006833
:1015E0004A4908600846006805F07EFE04460B463E
:1015F000474848492246CDE900010521084600F048
:1016000065FE00F0FFFD00203F4908704248007869
:10161000002867D13D4802683A48B0F900103548C3
:10162000006801F01BFF3D4908603D4804883D48C3
:1016300005883D48B0F90000241A3C48B0F9000084
:101640002D1A3748008800B237490880354800888D
:1016500000B2364908804EF66020844203DDA4F5CE
:101660007F44FF3C04E03248844201DA000C044429
:101670004EF66020854203DDA5F57F45FF3D04E081
:101680002B48854201DA000C0544002229B220B221
:1016900004F012FF274908600846006805F024FEA0
:1016A000064632460B4624A0FEF7C4FD21480168D9
:1016B0001A48006801E019E014E005F041FE2349F2
:1016C0000860084604F09AFE2048006805F0B8FF5C
:1016D0001F4908801D48006805F0B2FF1C490C3105
:1016E000088000BF4FF4005000F034F8BDE8FC81E2
:1016F000500000204C00002048000020580000202E
:1017000056000020540000205A0000205C000020F9
:101710009A999999999911406000002098000020A9
:101720002404004024080040A4000020A60000205B
:10173000A015FFFF9C00002073706565645F7077E3
:101740006D203D2025660D0A00000000A00000204D
:10175000342C014001490860704700001404014026
:10176000014600200022074B1B6803EA0102054BDB
:1017700014331B680B4013B10AB1012000E00020B4
:101780007047000000040140002123498279002AAB
:101790003AD00A46126803689A430B461A600A1D3B
:1017A000126803689A430B1D1A60027911440A6893
:1017B00003681A430A60184A0832126803689A4399
:1017C000154B08331A601A1D126803689A43124BAE
:1017D0000C331A604279102A0ED11A1F126803685E
:1017E0001A430D4B08331A601A1D126803681A4316
:1017F000094B0C331A600DE00749427911440A681D
:1018000003681A430A6005E0027911440A68036814
:101810009A430A60704700000004014030B500227E
:101820008B071C0F0F2303FA04F20B4B8C1053F899
:1018300024309343084C8D1044F8253023468C10F7
:1018400053F824308C07240F00FA04F42343024C8D
:101850008D1044F8253030BD080001402DE9F041DD
:10186000024600250026002000230024002791F8CE
:1018700003C00CF00F0591F803C00CF0100CBCF184
:10188000000F03D091F802C04CEA050591F800C0A2
:10189000BCF1000F31D0146800202BE04FF0010C98
:1018A0000CFA00F3B1F800C00CEA03069E4220D106
:1018B00083004FF00F0C0CFA03F7BC4305FA03FC4E
:1018C0004CEA040491F803C0BCF1280F06D14FF094
:1018D000010C0CFA00FCC2F814C00AE091F803C035
:1018E000BCF1480F05D14FF0010C0CFA00FCC2F816
:1018F00010C0401C0828D1D31460B1F800C0BCF15E
:10190000FF0F34DD546800202EE000F1080C4FF08A
:10191000010808FA0CF3B1F800C00CEA03069E4275
:1019200021D183004FF00F0C0CFA03F7BC4305FAEA
:1019300003FC4CEA040491F803C0BCF1280F05D164
:1019400000F1080C08FA0CF8C2F8148091F803C0F2
:10195000BCF1480F07D100F1080C4FF0010808FA5C
:101960000CF8C2F81080401C0828CED35460BDE8A3
:10197000F08141617047016170474FF6FF7101804E
:10198000022181700421C170704700BFFEE72DE97C
:10199000FC4104460D4616466B460622432168204C
:1019A00000F0F1F90746BFB99DF801009DF800105D
:1019B00040EA012000B220809DF803009DF802104B
:1019C00040EA012000B228809DF805009DF804102F
:1019D00040EA012000B230803846BDE8FC810000BA
:1019E00010B500200E4908600E48006820F47040D1
:1019F0000C4908600846006840F440500860002028
:101A00000949C1F8AC0100F011F80120044908604F
:101A100000F00CF800200449C1F8A80110BD000036
:101A2000A8812142040C01400080214210B502200F
:101A300002F002F910BD000008B50121082000F0F5
:101A4000FDFD4FF44060ADF8000010208DF803005C
:101A500003208DF8020069460448FFF7FFFE4FF4AB
:101A600040610248FFF787FF08BD0000000C0140FD
:101A700010B500200E4908600E48006820F4704040
:101A80000C4908600846006840F440500860012096
:101A90000949C1F8AC01FFF7C9FF012004490860FA
:101AA000FFF7C4FF00200449C1F8A80110BD0000E1
:101AB000A8812142040C01400080214270B50546F6
:101AC00000241648006820F4704014490860084655
:101AD000006840F400400860002614E0002010492F
:101AE0000860FFF7A3FF01200E49C1F8A8016006B6
:101AF000040E0B487C38006808B1601CC4B2FFF7C4
:101B000095FF701CC6B2082EE8DB15B9FFF7B0FFD1
:101B100001E0FFF765FF204670BD0000040C0140A6
:101B2000A88121420080214270B504461248006815
:101B300020F47040104908600846006840F44050A6
:101B4000086000200D490860002512E0E0090B49FB
:101B5000091D08606006040E01200949C1F8A801AA
:101B6000FFF764FF002005490860FFF75FFF681C6E
:101B7000C5B2082DEADB70BD040C0140A8812142EA
:101B80000080214210B50E48006820F470400C49D6
:101B900008600846006840F4405008600120094988
:101BA00008600949C1F8A801FFF740FF0020054976
:101BB0000860FFF73BFF00200349C1F8A80110BDF2
:101BC000040C0140AC8121420080214210B50E4836
:101BD000006820F470400C4908600846006840F432
:101BE000405008600020094908600949C1F8AC016B
:101BF000FFF71CFF0120054908600549C1F8AC0149
:101C0000FFF714FF10BD0000040C0140A881214221
:101C10000080214210B500241448006820F4704070
:101C2000124908600846006840F40040086001203E
:101C30000F490860FFF7FAFE01200E49C1F8A8011C
:101C4000FFF7F4FE07E0601CC4B2FA2C03DDFFF7D7
:101C5000BDFF012010BD0648803800680028F2D181
:101C60000349091F086000BFF4E70000040C0140AD
:101C7000AC8121420080214238B50121084600F0A4
:101C8000DDFC0121082000F0D9FC4FF48050ADF8B4
:101C9000000010208DF8030003208DF80200694633
:101CA0002248FFF7DBFD002021490860FFF7C4FE52
:101CB00080216B2000F0EBF8642001F097FF0021F9
:101CC0006B2000F0E4F8032000F09FF8002000F003
:101CD00094F8322000F0BEF80021382000F0D7F848
:101CE00000216A2000F0D3F80021232000F0CFF873
:101CF0008021372000F0CBF8752000F027F804464B
:101D000021460CA0FEF796FA682C0BD101216B201E
:101D100000F0BDF800216C2000F0B9F8322000F08E
:101D200099F801E0012038BD0020FCE7000C0140DB
:101D3000B0812142B6C1C8A1B5BDB5C4CAFDD6B5F2
:101D4000CEAAA3BA25640D0A0000000070B50446AF
:101D5000FFF718FFD020FFF7E7FEFFF75BFF2046F5
:101D6000FFF7E2FEFFF756FFFFF70CFFD120FFF76A
:101D7000DBFEFFF74FFF0020FFF7A0FE0546FFF751
:101D800025FF284670BD2DE9F04106460F46144652
:101D90001D46FFF7F7FE002141EA4601C8B2FFF7F2
:101DA000C3FEFFF737FF20B1FFF710FF0120BDE8AA
:101DB000F0813846FFF7B8FEFFF72CFFFFF7E2FE91
:101DC000012101EB4601C8B2FFF7AEFEFFF722FF8B
:101DD0000DE0012C04D10020FFF770FE287003E015
:101DE0000120FFF76BFE2870601EC4B26D1C002C32
:101DF000EFD1FFF7EBFE0020D9E710B50446E0066F
:101E0000010E1C2000F043F810BD10B50446E0069A
:101E1000010E1B2000F03BF810BD70B504460025F4
:101E2000BC2C01DB012510E0622C01DB02250CE05B
:101E30002A2C01DB032508E0142C01DB042504E037
:101E40000A2C01DB052500E0062529461A2000F0B2
:101E50001EF870BD70B50446B4F57A7F01DD4FF40D
:101E60007A74042C00DA04244FF47A7090FBF4F0B6
:101E7000401EC5B22946192000F009F8054626463D
:101E800004EBD671C1F34F00FFF7C7FF70BD70B50B
:101E900005460C46FFF776FED020FFF745FEFFF71C
:101EA000B9FE18B1FFF792FE012070BD2846FFF77A
:101EB0003BFEFFF7AFFE2046FFF736FEFFF7AAFE18
:101EC00018B1FFF783FE0120EFE7FFF77FFE002048
:101ED000EBE72DE9F04105460E4617469846FFF719
:101EE00051FE002141EA4501C8B2FFF71DFEFFF790
:101EF00091FE20B1FFF76AFE0120BDE8F081304677
:101F0000FFF712FEFFF786FE00240CE018F804002D
:101F1000FFF70AFEFFF77EFE18B1FFF757FE01201C
:101F2000EBE7601CC4B2BC42F0DBFFF74FFE0020C1
:101F3000E3E700BFFEE7704770B5002100230F22E2
:101F4000C47804B3154C246804F4E064C4F5E06478
:101F5000210AC1F10403CA40447804FA03F18478E9
:101F60001440214309010E4C0678A155047804F071
:101F70001F050124AC4005786D11AD0005F1E02589
:101F8000C5F8004109E0047804F01F050124AC40C5
:101F9000044D0678761145F8264070BD0CED00E042
:101FA00000E400E080E100E002490143024A1160E0
:101FB000704700000000FA050CED00E070B5002449
:101FC0000CE0002506E00020074901EBC50108559B
:101FD000681CC5B2802DF6DB601CC4B2082CF0DB97
:101FE00000F010F970BD0000F000002070B50B4645
:101FF000CE1701EB5676C6F3C702CE1701EB567625
:10200000F610A1EBC606F4B20123A340DDB20E4BDD
:1020100003EBC0039B5CDB430B4E06EBC006B354E3
:10202000094B03EBC0039B5C2B43074E06EBC0063A
:10203000B354054B03EBC0039B5CDB43024E06EB42
:10204000C006B35470BD0000F000002070B50A4611
:10205000CE1701EB5676C6F3C703CE1701EB5676C3
:10206000F610A1EBC606F4B20122A240D5B2054A91
:1020700002EBC002D25C2A43024E06EBC006F254C9
:1020800070BD0000F000002038B50121082000F0EC
:10209000D5FA10208DF803004FF44340ADF800004E
:1020A00003208DF8020069464F48FFF7D7FB4FF435
:1020B00000414D48FFF75FFC4FF47A7400E0641E66
:1020C000002CFCD14FF400414748FFF752FC4FF47D
:1020D0007A7400E0641E002CFCD14FF400414248A9
:1020E000FFF749FC0021AE2000F00AFA0021084663
:1020F00000F006FA0021102000F002FA0021402032
:1021000000F0FEF90021812000F0FAF90021CF2033
:1021100000F0F6F90021A12000F0F2F90021C8201A
:1021200000F0EEF90021A62000F0EAF90021A82035
:1021300000F0E6F900213F2000F0E2F90021D32071
:1021400000F0DEF90021084600F0DAF90021D52080
:1021500000F0D6F90021802000F0D2F90021D9202A
:1021600000F0CEF90021F12000F0CAF90021DA20B8
:1021700000F0C6F90021122000F0C2F90021DB2096
:1021800000F0BEF90021402000F0BAF90021202023
:1021900000F0B6F90021022000F0B2F900218D20F4
:1021A00000F0AEF90021142000F0AAF90021A420CB
:1021B00000F0A6F90021A62000F0A2F90021AF202E
:1021C00000F09EF9FFF7FAFE0021A62000F098F932
:1021D0000021C82000F094F90021A12000F090F91E
:1021E00000F010F838BD0000000C014010B50246A8
:1021F000012000E050430B1EA1F10104E1B2F9D12E
:1022000010BD000070B500241CE004F1B001C8B29C
:10221000002100F075F90021084600F071F9002155
:10222000102000F06DF9002508E0084901EBC50118
:10223000085D012100F064F9681CC5B2802DF4DB53
:10224000601CC4B2082CE0DB70BD0000F000002070
:102250002DE9F04F06460C461746A246A7F120008E
:1022600000F0FF0B00252BE0174800EB0B1010F8D7
:1022700005904FF000081DE009F0800020B12146D4
:102280003046FFF7E3FE03E021463046FFF7AEFE9F
:102290004FEA49604FEA1069601CC4B2A4EB0A001F
:1022A000102803D15446701CC6B206E008F10100A4
:1022B00000F0FF08B8F1080FDEDB00BF681CC5B2F4
:1022C000102DD1DBBDE8F08F768700082DE9F04FA7
:1022D0008BB00646894614461D46DDE91478002277
:1022E0004E4B3846414604F097FACDE9040104F01C
:1022F00057FC00F0FF0A0AEB8A01480004F07DFC5D
:102300000022474BCDE902013846414604F0DCFC8F
:10231000CDE90001DDE9022304F0FCFECDE9040172
:1023200004F00EFC0990002213462046294604F0D2
:102330008FFC0DD2A9F101021207110E721ED206F6
:10234000100E2D22FFF784FF701CC6B285F00045E9
:10235000344A354B2046294604F0A2F904460D467E
:102360002046294604F0ECFB0890089804F045FC50
:1023700022462B46CDE9040104F0DAFDCDE9060141
:10238000534649463046089A00F050F8002008901D
:1023900006EB0A00401EC006060EA9F10100000768
:1023A0004FEA10692E2249463046FFF751FF06F1E9
:1023B0000800C6B20998C1B20A20FFF717FF83468A
:1023C00004F032FCCDE90401DDE9062304F07CFCD5
:1023D000CDE90601089804F010FCCDE90201DDE921
:1023E000062304F05DF9CDE9040104F0A9FB08908F
:1023F000CB464FEAE97209EB12721211511CF21727
:1024000006EB5272D210501C0596099AD3B2089A64
:1024100000F00CF80BB0BDE8F08F00000000F03FBA
:1024200000002440BBBDD7D9DF7CDB3D2DE9F04760
:102430000546894616461F46681EC006050EA9F1C8
:10244000010000074FEA1069002E08DA2D224946E4
:102450002846FFF7FDFE764205F10800C5B20024CC
:1024600024E0381B401EC1B20A20FFF7BFFEB6FBB6
:10247000F0F00A21B0FBF1F201FB1208B8F1000FF5
:1024800008D1082101FB0451C8B230224946FFF7A8
:10249000DFFE09E008F13001CAB2082101FB045156
:1024A000C8B24946FFF7D4FE601CC4B2BC42D8DBB8
:1024B000FFF7A8FEBDE8F08770B505460E46144646
:1024C000681EC006050E701E0007060E0EE022787C
:1024D00031462846FFF7BCFE05F10800C5B2702D55
:1024E00003DD002506F11000C6B2641C2078202808
:1024F00002DB20787E28EADDFFF784FE70BD000055
:1025000070B504460E462EB14FF480411748FFF7D0
:1025100032FA04E04FF480411448FFF72AFA00250C
:102520001BE04FF400711148FFF723FA04F080001C
:1025300028B14FF480710D48FFF71DFA04E04FF405
:1025400080710A48FFF715FA4FF400710748FFF74A
:1025500012FA6006040E681CC5B2082DE1DB4FF4C8
:1025600080410248FFF707FA70BD0000000C0140EF
:102570007047000000B589B00121C80200F05EF884
:102580000121042000F05AF818208DF807004FF4BC
:102590001060ADF8040003208DF8060001A91D4865
:1025A000FFF75CF90020ADF8180041F61F40ADF8C8
:1025B0001C000020ADF81E00ADF81A008DF82000B8
:1025C00006A9154800F0CEFC6020ADF808000020F8
:1025D000ADF80E00ADF810000120ADF80A0008219A
:1025E0000D4800F03DFC08210B4800F081FC02A9D9
:1025F000094800F0E9FB02A9074800F03BFC012173
:10260000054800F040FB0121034800F030FB09B011
:1026100000BD000000080140002C014029B1064A1D
:10262000D2690243044BDA6104E0034AD26982436F
:10263000014BDA61704700000010024029B1064AE0
:1026400092690243044B9A6104E0034A926982430F
:10265000014B9A61704700000010024030B5002124
:102660000022002400232D4D6D6805F00C0121B1DE
:10267000042905D0082923D105E0294D056022E071
:10268000274D05601FE0254D6D6805F47012234D40
:102690006D6805F48034022505EB92421CB9214D8A
:1026A000554305600BE01D4D6D6805F400351DB107
:1026B0001C4D5543056002E0194D5543056002E08D
:1026C000174D056000BF00BF144D6D6805F0F001A7
:1026D0000909154D6B5C0568DD4045600F4D6D685F
:1026E00005F4E061090A104D6B5C4568DD408560CA
:1026F0000A4D6D6805F46051C90A0B4D6B5C456865
:10270000DD40C560054D6D6805F44041890B074DFE
:102710006B5CC568B5FBF3F5056130BD0010024088
:1027200000127A0000093D00CC000020DC000020EF
:10273000704710B500F002F810BD00000CB5002085
:10274000019000903348006840F4803031490860BF
:1027500000BF3048006800F4003000900198401C31
:102760000190009818B90198B0F5A06FF1D12948EF
:10277000006800F4003010B10120009001E000205A
:1027800000900098012843D12348006840F01000D1
:10279000214908600846006820F0030008600846E8
:1027A000006840F0020008601A4840681949486013
:1027B0000846406848600846406840F480604860C9
:1027C0000846406820F47C1048600846406840F4A1
:1027D000E81048600846006840F08070086000BF5C
:1027E0000C48006800F000700028F9D009484068E3
:1027F00020F00300074948600846406840F00200A6
:10280000486000BF0348406800F00C000828F9D178
:102810000CBD00000010024000200240042808D136
:102820004FF0E021096941F004014FF0E02211610D
:1028300007E04FF0E021096921F004014FF0E022A8
:10284000116170477047000010B51348006840F0F0
:1028500001001149086008464068104908400E49C7
:102860004860084600680E4908400B490860084661
:10287000006820F4802008600846406820F4FE00CC
:1028800048604FF41F008860FFF753FF4FF000606F
:102890000449086010BD0000001002400000FFF86D
:1028A000FFFFF6FE08ED00E0F0B50C4615460022ED
:1028B0000021068C4FF6FE773E400684028B018C89
:1028C0004FF60C7632407E1C06EA03162E43324346
:1028D000104EB0420ED0104EB0420BD0B0F1804F2F
:1028E00008D00E4EB04205D00D4EB04202D00D4E73
:1028F000B04206D14FF6FD76314044F00106314337
:1029000005E04FF6F576314044F00106314302838D
:102910000184F0BD002C014000340140000400405F
:1029200000080040000C0040F0B50C46154600229F
:1029300000210026078C4FF6EF7C07EA0C0707847E
:10294000028B018C4FF6FF7707EA041640F6FF472B
:102950003A404FF6FF7707EA03373A434FF6FF77DF
:1029600007EA05273A43114FB8420ED0104FB8423C
:102970000BD0B0F1804F08D00E4FB84205D00E4FAB
:10298000B84202D00D4FB84206D14FF6DF7739403A
:1029900046F01007394305E04FF65F77394044F0C1
:1029A0001007394302830184F0BD0000002C014070
:1029B000003401400004004000080040000C0040CA
:1029C000F0B50C461546002200210026078C4FF674
:1029D000FF6C07EA0C070784828B018C4FF6FF77A8
:1029E00007EA04264FF60C773A404FF6FF7707EADE
:1029F00003172F433A43114FB8420ED0104FB8423D
:102A00000BD0B0F1804F08D00E4FB84205D00E4F1A
:102A1000B84202D00D4FB84206D14FF6FF573940A9
:102A200046F48077394305E04FF2FF57394044F4CC
:102A30008077394382830184F0BD0000002C01407F
:102A4000003401400004004000080040000C004039
:102A5000F0B50C461546002200210026078C4EF6E4
:102A6000FF7C07EA0C070784828B018C4FF6FF7707
:102A700007EA043640F6FF473A404FF6FF7707EA89
:102A800005273A434FF6FF7707EA03373A43114FDA
:102A9000B8420ED0104FB8420BD0B0F1804F08D0E2
:102AA0000E4FB84205D00E4FB84202D00D4FB8427B
:102AB00006D14DF6FF77394046F48057394305E09B
:102AC00047F6FF57394044F48057394382830184E5
:102AD000F0BD0000002C0140003401400004004023
:102AE00000080040000C00407CB50121880700F080
:102AF000FAF800287DD0464A4649474802F0F8FADD
:102B0000002877D1454A46494648FEF740FF4648E7
:102B10000078012818D1454845490860FFF74EFA6A
:102B20004348006804F0E0FB04460B464148424934
:102B30002246CDE9000105210846FFF7C7FBFFF754
:102B400061FB0020384908703C48007800285AD1C1
:102B5000374802683348B0F900102E48006800F08A
:102B60007DFC37490860374804883748058837486E
:102B7000B0F90000241A3648B0F900002D1A314887
:102B8000008800B2314908802F48008800B23049DF
:102B900008804EF66020844203DDA4F57F44FF3CAC
:102BA00004E02C48844201DA000C04444EF6602014
:102BB000854203DDA5F57F45FF3D04E025488542BC
:102BC00001DA000C0544002229B220B203F074FCA3
:102BD0002149086021481A4908601F4801681848BF
:102BE000006804F0ADFB1E490860084603F006FCCF
:102BF00001E00CE007E040F2DC501A490880194976
:102C00000C31088000BF0121880700F02DF87CBD41
:102C1000500000204C0000204800002058000020F8
:102C200056000020540000205A000020B9FCB73F95
:102C30005C0000209A9999999999114060000020B0
:102C4000980000202404004024080040A400002034
:102C5000A6000020A015FFFF9C0000200080BBC440
:102C6000A0000020342C0140CA430282704721B1E9
:102C7000028842F00102028004E002884FF6FE73EF
:102C80001A400280704731B1B0F8442042F400424B
:102C9000A0F8442005E0B0F84420C2F30E02A0F8EA
:102CA00044207047F0B50C4615461E460021002210
:102CB00000230189028B038C4FF6F87739402143BA
:102CC0004FF6FC473A4040F201173A434FF6DD77A2
:102CD0003B404FF6FF7707EA06172F433B4301813E
:102CE00002830384F0BD30B5024600200023002497
:102CF000158A05EA0103958905EA010413B10CB1AF
:102D0000012000E0002030BD70B505460C46244887
:102D100085420ED0234885420BD0B5F1804F08D0B4
:102D20002148854205D02148854202D0204885426D
:102D300000D100E000BF208850B92389A2886188B3
:102D40002846FFF7B1FDE188284600F0DEF825E0CF
:102D5000208804280AD12389A28861882846FFF7A1
:102D6000E3FDE188284600F0D9F817E0208808281C
:102D70000AD12389A28861882846FFF721FEE188CD
:102D8000284600F0D8F809E02389A28861882846FF
:102D9000FFF75EFEE188284600F0D6F870BD00001F
:102DA000002C0140003401400004004000080040B5
:102DB000000C004000210180418001218180002120
:102DC000C18001817047000070B5002400220023FB
:102DD000058C4FF6FE7635400584028C8388048B83
:102DE0004FF68F752C40B51E2C400D882C43751E58
:102DF0002A400D892A434D882A43144DA8420BD0FE
:102E0000134DA84208D0134DA84205D0124DA84238
:102E100002D0124DA84213D14FF6F7752A404D89C2
:102E20002A434FF6FB752A408D882A434FF6FF65EB
:102E30002B404FF6FF552B408D892B43CD892B43DB
:102E400083800483CD888586028470BD002C014078
:102E5000003401400040014000440140004801406E
:102E60000A460021018B4FF6F77319401143018385
:102E70007047000070B5002200230024058C4EF638
:102E8000FF7635400584038C8488828B48F6FF7575
:102E90002A404FF6FF452A400D884FF6FF7606EA96
:102EA00005252A434DF6FF752B400D8906EA0535A9
:102EB0002B434D8806EA05352B430B4DA84202D023
:102EC0000A4DA84208D14BF6FF752C408D894FF66C
:102ED000FF7606EA85152C4384808283CD88A0F88E
:102EE0004050038470BD0000002C014000340140BC
:102EF0000A460021818B4FF2FF7319404FF6FF7392
:102F000003EA0223194381837047028B4FF6F37360
:102F10001A400283028B0A4302837047028B4FF2EE
:102F2000FF331A400283028B4FF6FF7303EA01233B
:102F30001A4302837047828B4FF6F3731A408283E1
:102F4000828B0A4382837047828B4FF2FF331A4091
:102F50008283828B4FF6FF7303EA01231A43828335
:102F600070470000002202881D4B98420ED01D4B76
:102F700098420BD0B0F1804F08D01B4B984205D03F
:102F80001A4B984202D01A4B984204D14FF68F73D5
:102F90001A404B881A43174B984207D0164B984259
:102FA00004D04FF6FF431A40CB881A4302808B8827
:102FB00083850B8803850A4B98420BD0094B9842B6
:102FC00008D00E4B984205D00D4B984202D00D4BC5
:102FD000984201D10B7A0386012383827047000057
:102FE000002C014000340140000400400008004073
:102FF000000C004000100040001400400040014060
:1030000000440140004801404FF6FF7181800021DB
:103010000180C180418001727047000000B587B017
:1030200001210220FFF7FAFA01210420FFF706FB35
:1030300004208DF81B00C020ADF8180006A9184820
:10304000FEF70CFC03A8FFF7DFFF0020ADF80C0033
:103050004FF6FF70ADF810000020ADF81200ADF88B
:103060000E0003A90F48FFF77DFF02231A46032134
:103070000C48FFF717FE6846FFF79CFE0020ADF8EE
:10308000080069460748FFF73FFE00200549243144
:10309000088001210348FFF7EAFD07B000BD0000EA
:1030A000000801400004004000B587B00121042061
:1030B000FFF7B4FA01210820FFF7C0FA04208DF8C9
:1030C0001B00C020ADF8180006A91848FEF7C6FB83
:1030D00003A8FFF799FF0020ADF80C004FF6FF7032
:1030E000ADF810000020ADF81200ADF80E0003A9F5
:1030F0000F48FFF737FF02231A4603210C48FFF75A
:10310000D1FD6846FFF756FE0020ADF8080069467D
:103110000748FFF7F9FD0020054924310880012107
:103120000348FFF7A4FD07B000BD0000000C0140FC
:103130000008004000B585B001210420FFF77EFAA9
:1031400001214804FFF76AFA04208DF803000820E3
:10315000ADF8000069461548FEF780FB18208DF891
:10316000030003208DF802000420ADF8000069463A
:103170000E48FEF773FB4FF4E13001900020ADF8EC
:103180000A00ADF81000ADF808000C20ADF80E00F4
:103190000020ADF80C0001A9054800F017F8012146
:1031A000034800F007F805B000BD0000000801402A
:1031B0000044004021B1828942F40052828104E03F
:1031C00082894DF6FF731A40828170472DE9F047DE
:1031D00086B005460E460024A24600BFA146002741
:1031E000B08900B100BF2F462C8A4CF6FF70044016
:1031F000F08804432C82AC894EF6F3100440B0886A
:1032000031890843718908430443AC81AC8A4FF685
:10321000FF400440B0890443AC8201A8FFF71EFAC6
:103220001F48874202D1DDF810A001E0DDF80CA0B4
:10323000A88900F4004040B10AEBCA0000EB0A1074
:1032400031684900B0FBF1F807E00AEBCA0000EB77
:103250000A1031688900B0FBF1F86420B8FBF0F087
:1032600004012009642101FB1089A88900F40040B1
:1032700040B1322000EBC900B0FBF1F000F00700D4
:10328000044308E0322000EB09106421B0FBF1F0A8
:1032900000F00F0004432C8106B0BDE8F087000069
:1032A0000038014000BFFEE7490050EAC12018BFC6
:1032B00004204A0D18BF40F0010040F2FF72B2EB4B
:1032C000515F08BF40F00200012808BF0520704789
:1032D0002DE9F0414F1E00EBC7010446D1E9000182
:1032E00015461E4637F006020DD02A46334603F037
:1032F000EBFC7F1E04EBC703D3E9002303F0D0F9F6
:1033000037F00602F1D1022F25D0042F13D0062F5B
:1033100018BFBDE8F0812A46334603F0D5FCD4E956
:103320000A2303F0BDF92A46334603F0CDFCD4E965
:10333000082303F0B5F92A46334603F0C5FCD4E967
:10334000062303F0ADF92A46334603F0BDFCD4E969
:10335000042303F0A5F92A46334603F0B5FCD4E96B
:10336000022303F09DF92A46334603F0ADFCD4E96D
:103370000023BDE8F04103F093B9012204F091BBB2
:1033800003F08EB9002213461046114603F044BAEA
:10339000024A0020110704F084BB000001FDFFFF7A
:1033A00030380A2801D2012070470020704700BF42
:1033B000704700002DE9FE4F06460F46002568467F
:1033C00001F08CFA002442E056F8240057F824104B
:1033D000A0EB010ABAF1000F01DB514601E0CAF18E
:1033E0000001084604F04CF983464FF08F4104F089
:1033F00015F880465DF82400002104F0D1F816D0BD
:103400005DF82410404604F009F882464FF07E51E2
:1034100004F09EFA814629F0004A0F48416A50465E
:1034200004F05AFA12D20120A04005430EE00A48E7
:10343000C169404604F050F905D30748016A404687
:1034400004F04AFA02D20120A0400543641C032C78
:10345000BADB2846BDE8FE8F587B00082DE9F0470F
:1034600081460C4615462649484604F035FA04D9EB
:103470002449484604F030F905D801202249087053
:103480000020BDE8F08700262946484604F055FA9A
:103490001E49C860C86803F027FF074600221C4B7E
:1034A00003F0D6FB0CD21949C86803F01DFF07468C
:1034B0000022184B03F006FD02D200201349C86019
:1034C000204604F0DDF8824610488168504604F03A
:1034D00037F907460D4AD168106804F031F9804683
:1034E000394603F02DFF06460848C06807490861C1
:1034F00008468169304604F023F906463046C0E7A5
:1035000000007042000070C26000002064000020D3
:103510000000E03F0000E0BF2DE9F04D8D4F21F0AD
:10352000004A86B005460C46BA452ADBAAEB0700DE
:1035300028430AD08848824501DC1AD1CDB106B0B3
:103540002846BDE8F04DFFF718BF844A844B284653
:1035500003F0BAFB07460E46824A834B28462146B3
:1035600003F0B2FB06B03A463346BDE8F04D03F037
:1035700097B80120FCF7F6FF06B0BDE8F04DFFF765
:1035800001BF7A48824542DABAF1795F0BDA284600
:10359000FFF78AFE042808BFFFF7FAFE284606B0A8
:1035A0002146BDE8F08D2A460B46104603F08CFB01
:1035B000834602466E480E460B4606217844FFF7C6
:1035C00087FE5A46334603F07FFB804669488A46A9
:1035D0005A46334604217844FFF77AFE5A4633466A
:1035E00003F072FB00223B4603F05AF802460B46FA
:1035F0004046514603F010F92A46234603F064FB87
:1036000006B02A462346BDE8F04D03F049B82846E7
:1036100024F0004100223D463B4603F089FC4FF078
:10362000FF3204F03EFA0646024653480F460B4668
:1036300006217844FFF74CFE32463B4603F044FB3C
:10364000CDE900014D4832463B4604217844FFF75E
:103650003FFE32463B4603F037FB00222B4603F089
:103660001FF8834602913046394602F0ABFF804690
:1036700043480D46504517DCDDE900015A46029BE0
:1036800003F0CAF842462B4603F01EFB42462B4687
:1036900003F006F8012204F004FA304A304B03F03C
:1036A00039FD304A304B4CE04FF0000A52460B4691
:1036B000404602F0F5FFCDE9031052462B46104676
:1036C000194603F001FB32463B4603F031FCDDE9CD
:1036D000033203F0A1F806460F46DDE900015A4621
:1036E000029B03F099F88346009101223046394647
:1036F00004F0D7F9194A1A4B03F01AFC06460F4694
:1037000001224046294604F0CCF95A46009B03F0BA
:10371000DBFA32463B4603F0FDFC06460F4601222B
:103720005046294604F0BDF90E4DDFF858802A4670
:10373000434603F0FDFB32463B4603F0F9FB2A46C5
:10374000434603F0F5FB002CD8BF81F0004106B0E2
:10375000BDE8F08D0000F03F0000F07F075C1433FF
:1037600026A6913C182D4454FB21F93F0000E03F70
:10377000B8570000CE5700004257000058570000CD
:103780003333EF3FFB21E93F2DE9F84F04460D4667
:1037900021F0004000917349814211DC7249884256
:1037A00001DC06D12CB120462946BDE8F84FFFF7D1
:1037B000E4BD6E48002DCCBF6D496E49BDE8F88F61
:1037C0006D49814211DD6D498142D8BF4FF0FF360E
:1037D0006DDD20462946FFF767FD042808BFFFF787
:1037E000D7FD20462946BDE8F88F6549654F25F08D
:1037F0000045814233DD6449814219DD00263246AD
:103800004FF080432046294602F04AFF80468A4610
:1038100001222046294604F044F900223B4603F0E9
:1038200079FC4246534602F0F7FF04460D463EE05F
:1038300001260022BA463B462046294602F030FFC8
:1038400080460F46002253462046294603F062FC7C
:1038500042463B4602F0E0FF04460D4627E04B4956
:1038600081421BDDDFF828A10226002253462046B4
:10387000294603F029FA00223B4602F011FF804658
:103880000F46002253462046294603F043FC424699
:103890003B4602F0C1FF04460D4608E003262246DF
:1038A0002B4600203B4902F0B7FF04460D46224656
:1038B0002B461046194603F007FA8B46824602460D
:1038C0000B4603F001FA07460246334888460B468A
:1038D00006217844FFF7FCFC52465B4603F0F4F9FE
:1038E00082462E488B463A46434605217844FFF7E8
:1038F000EFFC3A46434603F0E7F902460B46002E3A
:10390000504659460CDA02F0CBFE22462B4603F015
:10391000DBF901B022462B46BDE8F04F03F008BBAF
:1039200002F0BEFE22462B4603F0CEF91C4A7A4432
:1039300002EBC603D3E9002303F0ECFB22462B463F
:1039400003F0E8FB174A7A4402EBC603D3E90023ED
:1039500003F0EEFA009A002AB8BF81F00041BDE8FA
:10396000F88F0000000010440000F07F182D445430
:10397000FB21F93FFB21F9BF0000DC3F0000203EA6
:103980000000F33F0000F03F0000E63F00800340EE
:103990000000F83F0000F0BF5A5500001855000025
:1039A000B65400007E5400002DE9F04D9446CCF151
:1039B000000423F000464CEA0404594F46EAD4744C
:1039C0009A46884621F00042BC4206D8454240EA69
:1039D000050442EAD474BC4204D9BDE8F04D624605
:1039E000FFF7CEBCAAF14055A5F17F6555EA0C045E
:1039F0000BD0022404EAAA744A4DDFF82CE144EA11
:103A0000D87452EA000B04D00CE0BDE8F04DFFF78B
:103A1000BBBE002C14BF012CBDE8F08D022C30D0B1
:103A2000032C32D056EA0C0B0AD0BE4220D1BA4247
:103A300009D126F0804622F080423346114617E035
:103A400000291ADB25E0DFF8E4B0FB44002C04BFBA
:103A5000DBE90001BDE8F08D012C02BFDBE90001CC
:103A600081F00041BDE8F08D022C0AD0032C0CD06F
:103A7000BA4212D1B8F1000F0BDA2A482C49BDE83E
:103A8000F08D28462B49BDE8F08D28467146BDE8EB
:103A9000F08D24482849BDE8F08D921B12153C2A70
:103AA000C4BF204F244E10DCBAF1000FBEBF12F18C
:103AB0003C0F00273E4608DB624602F0ADFE21F0D7
:103AC0000041FFF761FE07460E4694B1012C08BF86
:103AD00086F000460DD0194A194B022C3846314663
:103AE00015D003F017FB2A46BDE8F04D114B03F04B
:103AF00011BB002213463846314602F0E5FF04BFF1
:103B00000220FCF72FFD38463146BDE8F08D03F06A
:103B100001FB2A46BDE8F04D064B03F009BA000050
:103B20000000F07F182D4454FB2109C012540000FE
:103B3000FB21F9BFFB210940FB21F93F075C14334E
:103B400026A6A13C2DE9F0410446E07800F0C0062D
:103B5000E07800F03F05607800F0010098B1EF10C8
:103B60002846E91705EB5171C910A5EBC101491CA5
:103B700001F0FF080B48006820B10A48414602687E
:103B80003846904700BF607800F0080030B1054823
:103B9000406818B1B011034A516888470020BDE859
:103BA000F0810000E000002010B56FF00400FEF787
:103BB00035FE0A4800680A49B0FBF1F0094908706F
:103BC0000846007800EB4001C1EBC0104FF6FF71D2
:103BD00001EAC0000449088010BD0000B8000020C0
:103BE00000127A0000000020020000200146114A65
:103BF00012884A434FF0E0235A6100229A611A4624
:103C0000126942F001021A6100BF4FF0E022106910
:103C100000F001021AB100F48032002AF5D04FF012
:103C2000E022126922F001024FF0E0231A61002223
:103C30009A617047020000200146114A12784A43F7
:103C40004FF0E0235A6100229A611A46126942F04D
:103C500001021A6100BF4FF0E022106900F001027A
:103C60001AB100F48032002AF5D04FF0E022126938
:103C700022F001024FF0E0231A6100229A6170479E
:103C80000000002038B5044664B120208DF8000003
:103C900028208DF8010030208DF8020038208DF8A2
:103CA000030004E0A32204216846FCF7D3FB6A4624
:103CB000042140F69E2002F0CFFA01F0B9FE38BD93
:103CC0003EB5044602208DF80000CA208DF80100A0
:103CD000E3208DF8020009208DF803006A460421D4
:103CE000682002F0B9FAA3208DF8000004F040002B
:103CF00048B1C0208DF80100C8208DF80200C22014
:103D00008DF8030006E0A3208DF801008DF8020075
:103D10008DF8030004F4C07048B1C4208DF804008D
:103D2000CC208DF80500C6208DF8060006E0A32003
:103D30008DF804008DF805008DF80600A3208DF89D
:103D400007008DF808008DF809006A460A2140F640
:103D5000A72002F081FA04F0030018B120208DF8AA
:103D6000000002E0D8208DF800006A46012140F6EC
:103D7000B62002F071FA04F0200018B1012000F022
:103D8000ADF802E0002000F0A9F804F4C07008B318
:103D900004F4807060B1B2208DF800008B208DF8A3
:103DA0000100B6208DF802009B208DF803000BE087
:103DB000B0208DF8000080208DF80100B4208DF82F
:103DC000020090208DF803006A46042140F6A220EC
:103DD00002F042FA04F0010020B3F8208DF8000050
:103DE0006A4601214FF40B6002F036FAFA210720EF
:103DF00000F02CFC072000F0F3FB012000F013FC86
:103E0000642000F0F3FC4FF4FA7000F002FDC821CA
:103E1000304800F0A3FB282000F0BCFB0A2000F093
:103E2000CCFB08E0D8208DF800006A4601214FF451
:103E30000B6002F011FA04F0020018B1D9208DF8DD
:103E4000000002E0D8208DF800006A46012140F20F
:103E50003D7002F001FA04F0040018B1012000F0F6
:103E600069F802E0002000F065F804F0100018B1D5
:103E70000120FFF707FF02E00020FFF703FF44F0F7
:103E800008001549488101F0D3FD002012498873CC
:103E900004F0400018B10846807B801D887304F44C
:103EA000C07020B10C48807B801D0B49887304F0E2
:103EB000140020B10848807B10300749887304F053
:103EC000030020B10448807B001D03498873002053
:103ED0003EBD000009E3CA02E00000203EB50446F2
:103EE0006CB10EA1D1E900208968CDE900200291D2
:103EF0006A4609214FF4976002F0AEF93EBD0AA26E
:103F0000D2E900109268CDE9010200916A460921C8
:103F10004FF4976002F0A0F9F0E70000B8AAB38D63
:103F2000B4980D355D000000B8AAAAAAB088C3C530
:103F3000C700000038B5044664B1C0208DF8000009
:103F4000C2208DF80100C4208DF80200C6208DF833
:103F5000030004E08B2204216846FCF77BFA6A46E2
:103F6000042140F6982002F077F901F061FD38BD98
:103F700010B5C8234FF48062024940F6F63001F0D4
:103F8000EBFB10BD807B00082DE9F04F8DB007469C
:103F9000884615469946DDE9166B002400203080DE
:103FA0006B49887B5A4605A901F0A2FC18B1601E36
:103FB0000DB0BDE8F08F6648807A00F0140000284C
:103FC00067D09DF8140000069DF8151040EA0140E6
:103FD0009DF8161040EA01209DF81710084328604C
:103FE0009DF8180000069DF8191040EA01409DF860
:103FF0001A1040EA01209DF81B10084368609DF8E4
:104000001C0000069DF81D1040EA01409DF81E109E
:1040100040EA01209DF81F100843A8609DF8200089
:1040200000069DF8211040EA01409DF8221040EA68
:1040300001209DF823100843E86004F11000C4B289
:10404000286800140190686800140290A8680014A1
:104050000390E8680014049001984043029901FB22
:104060000100039901FB0100049901FB010ABAF167
:10407000706F02DBBAF1885F05DD01F0D9FC00202A
:104080003080401E94E7B6F9000040F48070308024
:1040900000BF2F48807A00F0400020B305A9601CC3
:1040A000085C095D40EA012000B2A8F8000005A9FB
:1040B000E01C095C05AAA01C105C41EA002000B2CB
:1040C000A8F8020005A9601D095C201D105C41EAEA
:1040D000002000B2A8F80400A01DC4B2B6F9000088
:1040E00040F0080030801A48408900F4C07008B3DE
:1040F00005A9601C085C095D40EA012000B2388017
:1041000005A9E01C095C05AAA01C105C41EA00207E
:1041100000B2788005A9601D095C201D105C41EA91
:10412000002000B2B880A01DC4B2B6F9000040F073
:10413000700030800648807A00F0030018B105A9AD
:104140000819FFF7FFFC484600F05AFF00202FE750
:10415000E000002070B588B0064601A801F050F9D3
:10416000BDF804000021C90341EA5045C403444896
:10417000007A00F0030056F8200005904048007ACD
:1041800000F0040010B10598404205903C48007AC8
:10419000C0F3C10056F8200006903948007A00F0BC
:1041A000200010B10698404206903548007AC0F3CE
:1041B000811056F8200007903148008900F4807083
:1041C00010B10798404207900598C117A0FB04233F
:1041D00001FB043100FB0510810041EA927005905B
:1041E0000698C117A0FB042301FB043100FB051056
:1041F000810041EA927006900798C117A0FB042342
:1042000001FB043100FB0510810041EA9270079028
:104210000598000E8DF808000598000C8DF809002F
:104220000598000A8DF80A000598C0B28DF80B00B9
:104230000698000E8DF80C000698000C8DF80D0005
:104240000698000A8DF80E000698C0B28DF80F008F
:104250000798000E8DF810000798000C8DF81100DB
:104260000798000A8DF812000798C0B28DF8130065
:1042700002AA0C214FF4257001F0EEFF08B070BDCA
:10428000E000002030B585B0044616A207CA02AB94
:1042900007C3C82C03DD4FF0FF3005B030BDC82088
:1042A00090FBF4F0401E85B2280A8DF80000E8B2B9
:1042B0008DF801006A46022140F2162001F0CCFF81
:1042C00010B14FF0FF30E8E702AA0C2140F6C12000
:1042D00001F0C2FF10B14FF0FF30DEE704488481E7
:1042E0000020DAE7FEF2ABC4AAF1DFDFBBAFDFDF0D
:1042F000E00000201FB504464848007A00F00300A3
:1043000054F8200001904548007A00F0040010B1F4
:104310000198404201904148007AC0F3C10054F82E
:10432000200002903D48007A00F0200010B1029871
:10433000404202903948007AC0F3811054F82000BE
:1043400003903648008900F4807010B10398404211
:1043500003903349019880FB0101800F40EA8100FE
:1043600001902F49029880FB0110820042EA91706F
:1043700002902B49039880FB0110820042EA917061
:1043800003900198000E8DF800000198000C8DF844
:1043900001000198000A8DF802000198C0B28DF862
:1043A00003006A4604214FF4747001F055FF18B100
:1043B0004FF0FF3004B010BD0298000E8DF80000E1
:1043C0000298000C8DF801000298000A8DF8020096
:1043D0000298C0B28DF803006A4604214FF475704C
:1043E00001F03AFF10B14FF0FF30E3E70398000E01
:1043F0008DF800000398000C8DF801000398000A66
:104400008DF802000398C0B28DF803006A460421BB
:104410004FF4767001F020FFCCE70000E0000020B0
:1044200009E3CA0210B586B0044647A000680390AD
:1044300046A00068029046A00068019045A0006870
:10444000009004F0030003A9085C8DF8140003A891
:10445000C4F3C101405C8DF8150003A8C4F38111B9
:10446000405C8DF8160004F0030002A9085C8DF88A
:10447000100002A8C4F3C101405C8DF8110002A82D
:10448000C4F38111405C8DF8120005AA032140F2AB
:10449000264001F0E1FE18B14FF0FF3006B010BD2C
:1044A00004AA032140F22A4001F0D6FE10B14FF0D9
:1044B000FF30F3E7019805900098049004F00400A1
:1044C00058B19DF8140040F001008DF814009DF8DB
:1044D000100040F001008DF8100004F0200058B1E9
:1044E0009DF8150040F001008DF815009DF81100B1
:1044F00040F001008DF8110004F4807058B19DF86F
:10450000160040F001008DF816009DF8120040F0F2
:1045100001008DF8120005AA03214FF4886001F014
:104520009BFE10B14FF0FF30B8E704AA032140F220
:10453000314001F091FE10B14FF0FF30AEE7064878
:1045400004810020AAE700004CCD6C000CC92C00AF
:104550003656760026466600E0000020F8B505468F
:104560000E464FF47A7095FBF0F000FB06F4200E37
:104570008DF80000200C8DF80100200A8DF8020053
:10458000E0B28DF803006A4604214FF4AE7001F0EA
:1045900063FEF8BD38B50446052094FBF0F084B204
:1045A00020128DF80000E0B28DF801006A46022169
:1045B0004FF4AD7001F050FE38BD38B5044605200B
:1045C00094FBF0F084B220128DF80000E0B28DF878
:1045D00001006A4602214FF4AC7001F03DFE38BD87
:1045E00038B504460020009004F0010020B19DF889
:1045F000000040F03000009004F0020020B19DF86F
:10460000000040F00C00009004F0040020B19DF880
:10461000000040F0030000906A4601214FF4A470AE
:1046200001F01AFE38BD38B50446012C01DA012428
:1046300002E0042C00DD0424601EC0B200906A4633
:10464000012140F24F1001F007FE38BD2DE9FC4773
:1046500006460F4606F0070010B1B7F5C86F03DD38
:104660004FF0FF30BDE8FC87384603F021F8814663
:10467000594902F0D3FE8046684600F09BFE9DF843
:104680000000022806D0042816D0082826D01028BA
:1046900048D135E04FF08D41404603F051F8814656
:1046A00002F0CEFF84B24D49404603F049F88146FE
:1046B00002F0C6FF85B238E04FF08C41404603F06F
:1046C0003FF8814602F0BCFF84B24549404603F002
:1046D00037F8814602F0B4FF85B226E04FF08B41F7
:1046E000404603F02DF8814602F0AAFF84B23D490E
:1046F000404603F025F8814602F0A2FF85B214E09F
:104700004FF08A41404603F01BF8814602F098FFC3
:1047100084B23549404603F013F8814602F090FF19
:1047200085B202E04FF0FF309CE700BF20128DF809
:104730000400E0B28DF8050028128DF80600E8B2FA
:104740008DF8070006F00100A0B101AA02214FF484
:10475000EA7001F081FD10B14FF0FF3082E70DF1FA
:10476000060202214FF4927001F076FD10B14FF075
:10477000FF3077E706F00200A0B101AA02214FF452
:10478000EC7001F069FD10B14FF0FF306AE70DF1F8
:10479000060202214FF4947001F05EFD10B14FF05B
:1047A000FF305FE706F00400A0B101AA02214FF438
:1047B000EE7001F051FD10B14FF0FF3052E70DF1F6
:1047C000060202214FF4967001F046FD10B14FF041
:1047D000FF3047E7002045E700004843000040461F
:1047E0000000C045000040450000C04438B5044604
:1047F000052094FBF0F085B228128DF80000E8B295
:104800008DF801006A4602214FF4EF7001F024FD9B
:1048100038BD38B50446052094FBF0F085B2281267
:104820008DF80000E8B28DF801006A4602214FF4CD
:10483000ED7001F011FD38BD0EB501210820FDF726
:10484000FDFE01210846FDF7F9FE48208DF80B001A
:104850004FF40050ADF8080002A90B48FCF7FEFF2A
:104860000D210120FCF7DAFF4FF4005000900120E9
:104870008DF8060000208DF804000C208DF805004E
:104880006846FCF781FF0EBD000C014010B500F03A
:1048900003F8FFF7D1FF10BD08B54FF4A060FDF796
:1048A00083FB28208DF8000000208DF801008DF892
:1048B000020001208DF803006846FDF73DFB08BDAE
:1048C00000BF054A128802F04002002AF9D0C2B2A5
:1048D000014B1B1D1A807047004400407CB5054603
:1048E00028494968087801AB04220D21FDF74BFAED
:1048F00008B107207CBD9DF80700C0F301109DF8AA
:10490000041001F0E00140EAE1008DF800009DF89C
:104910000700C0F381009DF8051001F0E00140EAB6
:10492000E1008DF801009DF8070000F003009DF8FC
:10493000061001F0E00140EAE1008DF802000024D9
:104940001CE01DF8040018B9002045F8240013E00D
:104950000D4845F8240006E055F824000B4902F004
:10496000EFFE45F824001DF80400401EC0B20DF80B
:1049700004000028F0D100BF601CC4B2032CE0DBAF
:104980000020B7E7080000207B14AE3E1D5A843F8C
:104990002DE9F04F87B005460C46914601208DF871
:1049A000100000208DF81100FE4A1268917CFD4A2B
:1049B0005268107804AB0222FDF78BFA20B14FF059
:1049C000FF3007B0BDE8F08FC820FFF70FF90020D7
:1049D0008DF81000F34A1268D17BF24A52681078C1
:1049E00004AB0122FDF775FA10B14FF0FF30E8E794
:1049F000EC4A12685179EB4A5268107804AB0122F4
:104A0000FDF767FA10B14FF0FF30DAE7E54A1268B8
:104A1000917CE44A5268107804AB0122FDF759FA00
:104A200010B14FF0FF30CCE7DE4A1268D17DDD4A8D
:104A30005268107804AB0122FDF74BFA10B14FF029
:104A4000FF30BEE7D74A12681179D64A526810780B
:104A500004AB0122FDF73DFA10B14FF0FF30B0E793
:104A60000C208DF81000CF4A12681179CD4A526897
:104A7000107804AB0122FDF72CFA10B14FF0FF3093
:104A80009FE70F20FFF7B2F8C648806A407A8DF89A
:104A90001000C44A12689178C24A5268107804AB78
:104AA0000122FDF716FA10B14FF0FF3089E7BD483B
:104AB000806A007A8DF81000BA4A12685178B94AB3
:104AC0005268107804AB0122FDF703FA10B14FF0E1
:104AD000FF3076E7B9F1000F07D0B248806A807ADC
:104AE00040F0E0008DF8100004E0AE48806A807A63
:104AF0008DF81000AB4A12689179AA4A5268107872
:104B000004AB0122FDF7E5F910B14FF0FF3058E793
:104B1000B9F1000F07D0A348806AC07A40F0E000E6
:104B20008DF8100003E0A048C07A8DF810009D4A6F
:104B30001268D1799B4A5268107804AB0122FDF7C4
:104B4000C8F910B14FF0FF303BE7B9F1000F02D0C8
:104B5000C820FFF74BF840208DF81000914A1268EA
:104B60001179904A5268107804AB0122FDF7B1F92F
:104B700010B14FF0FF3024E778208DF81000894AFB
:104B800012685179874A5268107804AB0122FDF708
:104B9000A0F910B14FF0FF3013E783498889FFF780
:104BA00025F800208DF810007E4A126851797D4A60
:104BB0005268107804AB0122FDF78BF910B14FF069
:104BC000FF30FEE6774A1268917A764A526810788A
:104BD00004AB0222FDF7D7F810B14FF0FF30F0E63A
:104BE0009DF811009DF8101040EA012B0C209BFB52
:104BF000F0F0C6B20020A86068602860A060606025
:104C00002060824665E0674A1268D17A654A526838
:104C1000107804AB0C22FDF7B6F810B14FF0FF305E
:104C2000CFE69DF811009DF8101040EA012000B277
:104C3000ADF808009DF813009DF8121040EA01201D
:104C400000B2ADF80A009DF815009DF8141040EA76
:104C5000012000B2ADF80C00BDF90810206808442E
:104C60002060BDF90A10606808446060BDF90C104E
:104C7000A0680844A0609DF817009DF8161040EA4F
:104C8000012000B2ADF800009DF819009DF8181041
:104C900040EA012000B2ADF802009DF81B009DF82B
:104CA0001A1040EA012000B2ADF80400BDF900106E
:104CB000286808442860BDF90210686808446860E4
:104CC000BDF90410A8680844A8600AF1010000F0CA
:104CD000FF0AB24597DB3448D0F800C02868C117F6
:104CE000090441EA10410704624600233846FBF7F5
:104CF0007CFA32460023CDE90201FBF776FA286000
:104D00002948D0F800C06868C117090441EA104179
:104D10000704624600233846FBF767FA3246002351
:104D2000CDE90201FBF761FA68601F48D0F800C0C6
:104D3000A868C117090441EA10410704624600232C
:104D40003846FBF752FA32460023CDE90201FBF761
:104D50004CFAA8601448D0F804C02068C1170904B0
:104D600041EA10410704624600233846FBF73DFA4A
:104D700032460023CDE90201FBF737FA20600A48EA
:104D8000D0F804C06068C117090441EA1041070463
:104D9000624600233846FBF728FA32460023CDE965
:104DA000020103E008000020587B0008FBF71DFA11
:104DB00060601148D0F804C0A068C117090441EA36
:104DC00010410704624600233846FBF70EFA3246CC
:104DD0000023CDE90201FBF708FAA060A0680028D3
:104DE00004DDA068A0F58030A06003E0A06800F5B5
:104DF0008030A0600020E4E5587B00082DE9FC5FCE
:104E000006460F4600253D494968087801AB032254
:104E10000D21FCF7B8FF10B10720BDE8FC9F9DF8FD
:104E2000040000F01F008DF804009DF8050000F05C
:104E30001F008DF805009DF8060000F01F008DF89A
:104E40000600002456E056F8240057F82410A0EB82
:104E5000010BBBF1000F01DB594601E0CBF1000172
:104E6000084602F00DFC4FF08F41009002F0D6FA98
:104E7000814601A8005D68B32149086802F018FC6A
:104E8000834659461F4802F0C9FA804604E01E498D
:104E9000404602F055FC804601A8005D401EC0B2AD
:104EA00001A908550028F2D14146484602F0B6FA59
:104EB00083464FF07E5102F04BFD82462AF0004BB4
:104EC0000F488169584602F007FD12D20120A04028
:104ED00005430EE00A480169484602F0FDFB05D390
:104EE00007484169484602F0F7FC02D20120A04081
:104EF0000543641C032CA6DB28468EE7080000202F
:104F0000587B000800B04C4554E3853F10B504467B
:104F1000204600F00FF80346E01C00F00BF843EACF
:104F2000C00083B2A01D00F005F843EA801083B2F0
:104F3000184610BD014691F90020002A01DD00202D
:104F40001EE091F90020002A01DA042018E091F90E
:104F50000120002A01DD012012E091F90120002A40
:104F600001DA05200CE091F90220002A01DD02207F
:104F700006E091F90220002A01DA062000E007206D
:104F800070470000FEF710FEFDF77EF8FEF7D2F83E
:104F9000FCF772FE06E012A0FBF74CF94FF4FA7032
:104FA000FEF724FE00F0B6F90028F4D1FDF706F86C
:104FB00012A205210846FDF77FFAFDF723F94FF409
:104FC0007A70FEF713FEFFF761FC00F01BF8FDF7A7
:104FD000D1FAFEF723F8FEF767F800BFFEE70000FE
:104FE0006D70753630353020646D7020696E69746F
:104FF000206661696C65640D0A0000004F4B00007B
:105000007047000008B501210820FDF717FB0121BA
:105010000420FDF713FB6846FCF7AFFC10208DF869
:1050200003003020ADF8000003208DF8020069462F
:105030001148FCF713FC6846FCF79FFC10208DF824
:1050400003000320ADF800008DF8020069460B480C
:10505000FCF704FC20210848FCF78DFC10210648D1
:10506000FCF787FC01210548FCF785FC0221034879
:10507000FCF77FFC08BD000000080140000C014067
:1050800070B50446002624F00104184890F8240066
:1050900008B1002070BD1548807A10B94FF0FF307C
:1050A000F8E71248057C807A2040104908740846C9
:1050B000007CA04202D04FF0FF3600E0002614B979
:1050C0000A48007D18B1012001F050F902E00020EB
:1050D00001F04CF93CB100F0ABFC20B10348057481
:1050E0004FF0FF30D6E73046D4E70000080000203C
:1050F0002DE9F04F99B004460D4616464FF07E5705
:105100004FF000084FF000094FF0000A12A813A951
:1051100018AB0EAACDE9001014A916A8FEF734FFAB
:1051200018B1012019B0BDE8F08FBDF84C0000F4B3
:10513000807000287ED00E9802F0A2FA83464FF0CD
:105140009D4102F06BF907460F9802F099FA8346E9
:105150004FF09D4102F062F98046109802F090FAFB
:1051600083464FF09D4102F059F98146119802F0B3
:1051700087FA83464FF09D4102F050F98246394646
:105180004FF0804002F0DCFA4946059002F0D8FA70
:10519000414607904FF0404002F0D2FA5146059048
:1051A00002F0CEFA0690079902F0CAF8834602F0A0
:1051B0009BF8CDE90801FEF7AFF94FF06632544B8A
:1051C000CDE90A0101F080FDCDE90C0101F036FACC
:1051D000206049464FF0804002F0B2FA4946029002
:1051E00002F0AEFA414604904FF0404002F0A8FAB7
:1051F0004146029002F0A4FA0390049902F0A8FB41
:1052000083464FF07E5102F09BF8059002F06CF857
:10521000CDE9080139464FF0804002F091FA41464D
:10522000039002F08DFA494604904FF0804002F05E
:1052300087FA00E068E05146039002F081FA834665
:10524000049902F07DF8059002F04EF8CDE90601D0
:10525000DDE90823FEF7A8FB4FF066322C4BCDE9C1
:105260000A0101F031FDCDE90C0101F0E7F92860F8
:105270005146504602F064FA49460490484602F00E
:105280005FFA41460390404602F05AFA39460190CF
:10529000384602F055FA0090019902F051F8029058
:1052A000039902F055FB8346049902F051FB0590E7
:1052B00002F01AF8CDE908015146384602F040FAEA
:1052C00049460490404602F03BFA0390049902F0EC
:1052D00037F84FF08041059002F032FA834602F031
:1052E00003F8CDE90601DDE90823FEF75DFB4FF089
:1052F0006632074BCDE90A0101F0E6FCCDE90C016D
:1053000001F09CF9306001E002200BE7002009E782
:1053100066A64C4070B50024FCF78EFB00F024F923
:10532000002840D1782000F02FFFC4B20CB101203A
:1053300070BD7820FFF7A4FEC4B20CB10220F7E7DD
:10534000642000F0D3FEC4B20CB10320F0E7FEF7F6
:105350000FFEC4B20CB10420EAE71548FFF7D6FDF2
:105360000546FFF75FF8C4B20CB10520E0E740F254
:105370007310FEF7A5FCC4B20CB10620D8E7642078
:10538000FEF780FFC4B20CB10720D1E700F0A4FF04
:1053900004460CB10820CBE7012000F0A3FDC4B205
:1053A0001CB10920C4E70A20C2E70020C0E70000C2
:1053B0003400002001461148407A30B1012807D05E
:1053C000022808D003280CD108E0022008700BE066
:1053D0000420087008E00820087005E0102008701C
:1053E00002E04FF0FF30704700BF0448C07C18B1A6
:1053F00008784006000E08700020F4E7080000203E
:1054000001461348407A30B1012808D002280AD05A
:10541000032810D10BE04FF4804008800EE041F6E5
:105420009C7008800AE04FF48050088006E04FF43A
:105430000060088002E04FF0FF30704700BF044872
:10544000C07C10B10888401008800020F5E70000FB
:105450000800002001460248007C087000207047C8
:105460000800002001460F48007A30B1012807D01B
:10547000022809D003280FD10AE0FA2008800EE0A4
:105480004FF4FA7008800AE04FF47A70088006E062
:105490004FF4FA60088002E00020088000BF00BFDF
:1054A000002070470800002001460E48007A30B105
:1054B000012807D0022808D003280CD108E00A48A8
:1054C00008600BE00948086008E00948086005E04A
:1054D0000848086002E04FF0FF30704700BF00202E
:1054E000FBE70000080000200000034300008342A7
:1054F000333303423333834101461248C07A0828CC
:1055000017D2DFE800F01704070A0D101318BC20AB
:10551000088013E06220088010E02A2008800DE057
:10552000142008800AE00A20088007E0052008808F
:1055300004E000BF00BF0020088000BF00BF0020C3
:1055400070470000080000200146064890F824003B
:1055500010B14FF0FF3070470248C089088000202A
:10556000F9E70000080000201CB580208DF800003D
:10557000654A1268917C644A526810786B46012231
:10558000FCF7A7FC10B14FF0FF301CBD6420FEF704
:105590002DFB00208DF800005B4A1268917C5A4A6E
:1055A000526810786B460122FCF793FC10B14FF063
:1055B000FF30EAE7544A1268917D534A52681078E6
:1055C0006B460622FCF7DFFB10B14FF0FF30DCE743
:1055D0009DF80500C007400F9DF8031001F0010180
:1055E00040EA41009DF8011001F0010140EA010488
:1055F00094B1012C03D101214348C17431E0022C44
:1056000003D100214048C1742BE021463FA0FAF7A6
:1056100011FE4FF0FF30B8E73B4A1268D1783A4AA2
:10562000526810786B460122FCF7ADFB10B14FF0C9
:10563000FF30AAE79DF8000000F00F042CB93D48A8
:10564000FAF7F8FD4FF0FF309FE7042C06D13AA09F
:10565000FAF7F0FD01212C48C17402E000212A482C
:10566000C174FF2128488172FF2027490872FF2159
:1056700025484172C1724FF6FF71C181FF2101744B
:1056800081740121017380F82210002180F8231019
:10569000417501751630016041608160163880F8EF
:1056A000241080F82510C1844FF4FA6000F062FCE9
:1056B00010B14FF0FF3068E7022000F02BFB10B173
:1056C0004FF0FF3061E72A2000F0CEFC10B14FF020
:1056D000FF305AE7322000F009FD10B14FF0FF30E3
:1056E00053E70020FFF7CCFC10B14FF0FF304CE740
:1056F000002000F051FB10B14FF0FF3045E70020D3
:1057000000F042FD002040E708000020556E737550
:1057100070706F7274656420736F66747761726500
:105720002070726F64756374207265762025642E14
:105730000A000000FC8E000848616C662073656EEC
:105740007369746976697479207061727420666F08
:10575000756E642E0A0000002DE9F04385B0054601
:105760000E4690469946294890F8250020B14FF002
:10577000FF3005B0BDE8F08316B94FF0FF30F8E711
:10578000002423E0281B102801DD102000E0281B46
:1057900087B232193946204600F05EFD10B14FF055
:1057A000FF30E6E701AA3946204600F001F910B1C2
:1057B0004FF0FF30DDE730193A4601A9FAF71EFE37
:1057C00010B16FF00100D4E7E01984B2AC42D9DB2C
:1057D0004FEA28208DF8000008F0FF008DF8010046
:1057E0000A4A1268917E094A526810786B46022272
:1057F000FCF76FFB10B14FF0FF30BAE7012103480F
:1058000080F82510A0F826900020B2E708000020BC
:1058100038B50446282C02DD4FF0FF3038BDDCB926
:10582000002000F0EBFB00208DF8000007208DF831
:1058300001002E4A1268917C2C4A526810786B46FF
:105840000222FCF746FB10B14FF0FF30E6E70021E3
:10585000264801750020E1E7012000F0CFFB202061
:105860008DF80000012C06D100208DF801000520E4
:1058700000F0FAFB17E0052C06DC01208DF8010092
:10588000052000F0F1FB0EE0142C06DC02208DF860
:1058900001000A2000F0E8FB05E003208DF801007C
:1058A000142000F0E1FB9DF80100072101EB8010BE
:1058B000C0B28DF801000D4A1268917C0B4A526803
:1058C00010786B460222FCF704FB10B14FF0FF305A
:1058D000A4E70821054881720021017301210175A7
:1058E0000020FFF7CDFB002098E700000800002013
:1058F000F8B504460F4616462C4890F8240010B917
:105900004FF0FF30F8BD2948807A10B94FF0FF30D2
:10591000F8E7264A1268917A244A526810786B4652
:105920000222FCF730FA10B14FF0FF30EAE79DF8A1
:1059300001009DF8001040EA0125A54203DA00208D
:105940003070401EDEE7194840684088B5EB600FB4
:1059500017DD164A1268517C144A526810786B465B
:105960000122FCF710FA10B14FF0FF30CAE79DF8A2
:10597000000000F0100020B100F05AF86FF00100B4
:10598000C0E7E2B2094B1B68D97A084B5B6818780C
:105990003B46FCF7F8F910B14FF0FF30B2E795FB4A
:1059A000F4F0401E30700020ACE70000080000203A
:1059B000F8B504460D46164616B94FF0FF30F8BD4F
:1059C0001A48807A10B94FF0FF30F8E720128DF8AE
:1059D0000000E0B28DF801009DF801002844134951
:1059E00049684989884202DD4FF0FF30E7E70F4AF6
:1059F0001268117E0D4A526810786B460222FCF73D
:105A000068FA10B14FF0FF30D9E7EAB2074B1B68D4
:105A1000597D064B5B6818783346FCF7B4F910B132
:105A20004FF0FF30CBE70020C9E70000080000205E
:105A300008B57048807A10B94FF0FF3008BD0020DB
:105A400000906C4A1268D17B6A4A526810786B46A3
:105A50000122FCF73EFA10B14FF0FF30EEE7654A45
:105A600012685179634A526810786B460122FCF73C
:105A700030FA10B14FF0FF30E0E75E4A126811795A
:105A80005C4A526810786B460122FCF722FA10B18A
:105A90004FF0FF30D2E7574890F82400002853D049
:105AA0000C200090534A12681179524A52681078BB
:105AB0006B460122FCF70DFA10B14FF0FF30BDE745
:105AC0003220FEF793F8C02000904A48807A00F018
:105AD000010020B19DF8000040F020000090454AF0
